:020000040800F2
:1000000070CB00105D030008394E0008DD4D00087C
:10001000354E000831480008635D0008000000000C
:1000200000000000000000000000000093550008E0
:100030002F4A00080000000069500008F956000827
:1000400077030008770300087703000877030008A8
:100050007703000877030008770300087703000898
:100060007703000877030008770300087703000888
:100070007703000877030008770300087703000878
:100080007703000877030008770300087703000868
:10009000770300087703000877030008314A000857
:1000A0007703000877030008770300087703000848
:1000B0007703000877030008770300087703000838
:1000C000770300087703000877030008AD540008A1
:1000D00077030008595B00087703000877030008DE
:1000E0007703000877030008770300087703000808
:1000F00077030008770300087703000877030008F8
:1001000077030008770300087703000877030008E7
:1001100077030008770300087703000877030008D7
:100120006F48000877030008774800087703000845
:1001300077030008770300087703000877030008B7
:1001400077030008770300087703000877030008A7
:1001500081480008B1480008B9480008635B0008FE
:100160007703000877030008770300087703000887
:1001700077030008770300087703000800000000F9
:10018000770300087703000800F002F800F0D7F8C2
:100190000AA090E8000C82448344AAF10107DA45E2
:1001A00001D100F0CCF8AFF2090EBAE80F0013F05D
:1001B000010F18BFFB1A43F00103184728F2010092
:1001C00068F201000A444FF0000C10F8013B13F0F4
:1001D000070408BF10F8014B1D1108BF10F8015BA0
:1001E000641E05D010F8016B641E01F8016BF9D193
:1001F00013F0080F1EBF10F8014BAD1C0C1B09D1EA
:100200006D1E58BF01F801CBFAD505E014F8016B5B
:1002100001F8016B6D1EF9D59142D6D370470000ED
:10022000103A24BF78C878C1FAD8520724BF30C822
:1002300030C144BF04680C607047000000230024F4
:1002400000250026103A28BF78C1FBD8520728BFE6
:1002500030C148BF0B6070474B1C012B98BF7047E3
:100260002DE9F003911C9B08B1F80480B1F80290CD
:100270000A8831F802CC8044814402448444D9F88D
:100280000070D8F800601568DCF80040C9F800601C
:10029000C8F80070CCF800501460D9F80470D8F891
:1002A00004605568DCF80440C9F80460C8F80470BC
:1002B000CCF80450546008315B1ED5D1BDE8F00382
:1002C00070474B1C012B98BF70472DE9F003911C20
:1002D0009B08B1F80480B1F802900A8831F802CC8A
:1002E00000EB580800EB590900EB520200EB5C0CE4
:1002F000D9F80070D8F800601568DCF80040C9F83B
:100300000060C8F80070CCF80050146008315B1E23
:10031000DFD1BDE8F0037047662908F0FF870020B1
:1003200070471FB508F042FF01F0D4FA0400002026
:10033000002107F001FBE0601FBD10B510BD01F00A
:10034000E5FB1146FFF7EDFF07F0D4F901F003FCE0
:1003500003B4FFF7F2FF03BC01F0AAFC0948804791
:1003600009480047FEE7FEE7FEE7FEE7FEE7FEE797
:10037000FEE7FEE7FEE7FEE704480549054A064BAF
:10038000704700000D5700088901000870C901205E
:1003900070CB001070CB012070C700109FED1A1AAF
:1003A000F5EE000A40EE010ABDEEE00AF5EEC00AE5
:1003B00010EE100AF1EE10FA38BF401E00EE100ADF
:1003C0001349F7EE001AB8EEC00A30EEC00ADFEDAE
:1003D0000F0A20EE200AFCEEC00A10EE900AC0F3CD
:1003E000080000EE900A01EB8000F8EE600A90ED44
:1003F000011A70EE600A90ED000A71EEE01A21EE2B
:10040000800A00EE810A704783F9223E0000004412
:10041000BCEA01089FED3D0A5FEA920C57D000BF8D
:10042000D0ED000A90ED011A0B1D60EEA00A083015
:1004300041EE010AF5EEC00AF1EE10FAC6BFB1EEC8
:10044000E01A81ED001A81ED000AD0ED000A90ED6E
:10045000011A191D60EEA00A083041EE010AF5EEFE
:10046000C00AF1EE10FAC6BFB1EEE01A83ED001A31
:1004700083ED000AD0ED000A90ED011A0B1D60EE2D
:10048000A00A083041EE010AF5EEC00AF1EE10FABA
:10049000C6BFB1EEE01A81ED001A81ED000A90EDC1
:1004A000001AD0ED010A191D21EE011A083000EEE4
:1004B000A01AB5EEC01AF1EE10FAC6BFF1EEC10AED
:1004C000C3ED000A83ED000ABCF1010CA8D112F0C3
:1004D000030208BF704700BFD0ED000A90ED011A7B
:1004E0000B4660EEA00A091D083041EE010AF5EE48
:1004F000C00AF1EE10FAC6BFB1EEE01A83ED001AA1
:1005000083ED000A521EE7D1704700000000000092
:100510002DE9F04106462DED028B8C46008873686C
:1005200001EB80044508274601EB850004EB8502BA
:100530005FEA95087DD000BFD1ED003AD4ED001AF6
:1005400091ED012A94ED013A73EEA16A91ED024A10
:1005500091ED031AD4ED022AD4ED035A90ED008AEE
:1005600090ED017A90ED020A90ED036A92ED005A47
:10057000D2ED014AD2ED027AD2ED030AC1ED006A52
:1005800072EE036A73EEE13A74EEC71AC1ED016AC6
:1005900074EE226A74EE622A37EEC04AC1ED026A36
:1005A00071EE256AC1ED036A72EE436A31EE652A87
:1005B00038EE051A35EE483A80ED001A37EE241A67
:1005C00080ED011A30EE271A80ED021A36EE201A5D
:1005D00080ED031A30EEC61A93ED000AD3ED010A3E
:1005E00063EE804A26EEA05A66EE805A63EEA03A89
:1005F00074EE854A75EEE33AC4ED004A63EE204A94
:10060000C4ED013A61EE803A61EEA00A23EE000AE1
:1006100074EEE31A30EE800AC2ED001A82ED010A90
:1006200093ED020AD3ED030A62EE803A22EE203AFD
:1006300000E024E062EEA01A22EE002A73EE832A84
:100640001030103172EE611AC4ED022A24EE202A15
:10065000C4ED031A61EE001A61EE200A24EE000ACE
:10066000103332EE611A103430EE800A82ED021A35
:1006700082ED030A1032B8F101087FF45DAF29461C
:1006800002236046726800F041FB72682946BDECA7
:10069000028B3846BDE8F041022300F037BB2DE95C
:1006A000F34F2DED048B87B00B980088470801EBC2
:1006B000870000EB870606EB8705CDE90056DDF8DD
:1006C0002C80A5F1040C0CEB8703CDE902014FEA65
:1006D0005709D8F804800427CDE90497D1ED000A22
:1006E00096ED000A90ED011A95ED013A70EE802A20
:1006F00070EEC03AD1ED010A96ED010A041F321FD7
:1007000030EE802A70EEC01A31EE230AD0ED000AD6
:1007100032EE415A33EEC11A30EE434A71EEE04AEE
:1007200095ED000A70EEA11A35EE435A74EE805A28
:1007300072EEE04A70EEA20A71EEC01A31EE031AB0
:1007400074EEC04A30EE800A062708F1080A81EDEF
:10075000000A90ED010AD5ED010A08F1100B30EE08
:10076000020A08F1180830EE200A81ED010A80ED36
:10077000004AC0ED015AC6ED004A86ED015A85EDEA
:10078000001AC5ED011ADDF810900830083108355F
:100790000836A9F102095FEA590900F0078100BF94
:1007A000D1ED000A96ED000AD0ED011AD5ED014A0F
:1007B00030EE802A30EEC05AD1ED010A96ED010AE2
:1007C00070EE802A30EEC01A31EE850AD5ED000AAF
:1007D00030EE644A90ED000A31EE403A30EE011AF4
:1007E00073EE205A32EE403A30EE020A31EE601AD1
:1007F00073EE603A30EE200A32EEE13A75EE611A9D
:1008000081ED000A90ED010AD5ED010A33EE643A5C
:1008100030EE220A71EEA41A30EE200A81ED010AB0
:10082000D4ED002ADCED004A54ED010A1CED010A6A
:1008300032EEA47A32EEE49A72EEE42A52ED018AA4
:1008400070EE807A30EEC02A72EEE82AD2ED000A0D
:1008500093ED000A13ED018A30EEC05A72EE886AF9
:1008600077EEE82A35EE026A32EEC85A77EE602A51
:1008700072EEC04A70EEC02A70EE870A72EEC22A8B
:1008800030EE800A38EE682A84ED000A12ED010A83
:1008900053ED010A32EE492A30EE270A30EE200AE3
:1008A00004ED010A9AED000ADAED010A64EE007A1D
:1008B00025EEA07A65EE805A24EE204A37EE877A3C
:1008C00035EEC44A80ED007A80ED014A26EEA04A5A
:1008D00066EE005A66EE200A26EE800A083034EEF4
:1008E000654A083130EE800A82ED004A083C02ED8C
:1008F000010A9BED000ADBED010ADDF814E023EEAE
:10090000804A63EE205A23EE003A63EEA03A083A9A
:1009100034EE254A0BEB8E0B33EE633A86ED004A3C
:100920000AF1080A86ED013AB1EE643A083663EE40
:10093000003A25EE203A25EE000A64EEA00A33EED6
:10094000C33A30EEC00A8CED003A0CED010A98ED86
:10095000000AD8ED010A08EB870861EE803A21EE23
:10096000203A21EE001A61EEA01AACF1080C33EE29
:10097000833A31EE611A85ED003A62EE801A85ED18
:10098000011A22EE201A62EEA00A22EE000A0835B1
:1009900031EE611A30EE800A83ED001A03ED010A90
:1009A000083BB9F101097FF4FBAE00BFD1ED000AAD
:1009B00096ED000A91ED011AD0ED015A30EE802A31
:1009C00070EEC00A96ED010A95ED015A042371EE0E
:1009D000001A71EE404A35EEA00A90ED001A31EE91
:1009E000E54A70EEE50A30EE453A95ED000A34EE40
:1009F000454A30EE855A74EEC12A72EE413A71EEE4
:100A0000240A31EE021A72EE802A73EEC03A70EEBA
:100A1000C00A31EE000A81ED000A90ED010A95ED61
:100A2000011A30EE210A30EE010A81ED010A9AED39
:100A3000000A9AED011A63EE001A22EE812A22EED4
:100A4000800A23EE011A71EE821A30EE410AC0EDDF
:100A5000001A80ED010A9BED000A9BED011A63EE7E
:100A6000801A24EE012A24EE000A23EE811A71EE88
:100A7000821A30EE410AC6ED001A86ED010A98EDA1
:100A8000010A98ED001A60EE801A25EE012A60EE48
:100A9000810A25EE000A32EE211A30EEC00A85EDF9
:100AA000001A85ED010A0B984268DDE9030100F0A8
:100AB0002DF90B98042304994268029800F026F956
:100AC0000B98042304994268019800F01FF90B98D1
:100AD000049904234268009807B0BDEC048B02B06F
:100AE000BDE8F04F00F012B92DE9F04104889846B6
:100AF00017460D460646012A20D1281DF4B1A0F163
:100B0000080114F0010F06D091ED020AB1EE400A7F
:100B100081ED020A08315FEA540C0FD091ED020A10
:100B2000B1EE400A81ED020A91ED040AB1EE400AED
:100B300081ED040A1031BCF1010CEFD1B4F5807FD6
:100B40001BD008DC102C13D0202C16D0402C19D030
:100B5000802C0DD01CE0B4F5007F13D0B4F5806F6D
:100B600006D0B4F5006F08D0B4F5805F0AD00FE06E
:100B700029463046FFF7CCFC0AE029463046FFF70D
:100B80008EFD05E0214601232846726800F0BEF87C
:100B9000B8F1000F04D0B1892846B268FFF75CFBBA
:100BA000012F18BFBDE8F08100EE104AB7EE001A21
:100BB000002CF8EE400A81EE200A08BFBDE8F08163
:100BC000A5F1080014F0010F0ED0D0ED020A60EE7E
:100BD000800AC0ED020AD0ED030AF1EE600A60EE71
:100BE000800AC0ED030A0830610808BFBDE8F08143
:100BF000D0ED020A60EE800AC0ED020AD0ED030AD1
:100C0000F1EE600A60EE800AC0ED030AD0ED040A3E
:100C100060EE800AC0ED040AD0ED050AF1EE600A2C
:100C200060EE800AC0ED050A1030491EE0D1BDE833
:100C3000F081000070B44FF0000CB0EC010A4E1EC1
:100C40006446B50831D000BFD0ED000A90ED011A1E
:100C50000830B4EEE00AF1EE10FA3CBFB0EE600AE4
:100C60000CF10104F0EC010AB4EEC10AF1EE10FA45
:100C70003CBFB0EE410A0CF10204B0EC011AB4EE34
:100C8000E00AF1EE10FA3CBFB0EE600A0CF103048A
:100C9000B4EEC10AF1EE10FA3CBFB0EE410A0CF11D
:100CA00004046D1E0CF1040CCED106F0030C5FEAB7
:100CB0000C0617D0B6F1004F19D2002EC8BF002580
:100CC00010DD00BFD0ED000AF4EEC00AF1EE10FA1C
:100CD00004DD4C19B0EE600AA4EB0C04001D6D1C81
:100CE000761EEFD182ED000A1C6070BC7047F0ECFC
:100CF000010AB4EEE00AF1EE10FA3CBFB0EE600A71
:100D0000A1EB0C04BCF1010CF1D1EBE72DE9FF4F95
:100D10002DED108B82B09FEDFEFA0B461C46DB08D2
:100D20004FF0000C0CEB030505EB030808EB03097F
:100D300009EB030606EB030A00EBCC0700EBC60643
:100D400097ED001AD6ED000A0AEB030B00EBC50580
:100D500000EBCA0A31EE200A71EE601A95ED002A06
:100D6000DAED000A0BEB030E00EBC80832EE201A96
:100D700000EBCB0B32EE602AD8ED002ADBED000A47
:100D800000EBC90900EBCE0E99ED003A9EED004A4A
:100D900072EEA03A72EEE02A73EE040A33EE443AA1
:100DA00070EE636A70EE233A31EE600A71EE200A4B
:100DB00033EEA01A73EEE00A87ED001AC6ED000AC2
:100DC00097ED011AD6ED010AD5ED013A98ED014AE9
:100DD00031EE206A71EE600A9AED011A99ED015A1E
:100DE00073EE814A73EEC13A9BED011A34EE017A3B
:100DF00034EE411A9EED014A75EE045A35EE444A2E
:100E000036EE475A36EE076A34EEE57A74EEA54AB6
:100E100076EE245A76EE644AC7ED015AC6ED014AD1
:100E200076EE874AC8ED004A76EEC74ACBED004A17
:100E300075EE404A35EE000AC8ED014A8BED010A15
:100E400032EE430A32EE032A20EE0F0A62EE0F4A18
:100E500033EEC42AA4448C4522EE0F3A33EE842AA2
:100E600030EEC34A62EE0F3A30EE833A31EEC02ADA
:100E700031EE800A71EE630A31EE231A72EEE41A43
:100E800072EEA42A70EE013A30EE410AC5ED003A46
:100E90008EED000A32EE200A8AED000A32EE600A78
:100EA00089ED000A33EE620A85ED010A33EE220A6B
:100EB0008EED010A34EE610A8AED010A34EE210A50
:100EC00089ED010AFFF42EAF082B3FBF02B0BDEC45
:100ED000108B04B0BDE8F08F4FF0000CCDF804C0CB
:100EE0004FF0010CCDF800C0DDF804C0159DAC44F6
:100EF0004FEA8C0505EB0C07CDF804C007EB0C0995
:100F00004FEA4C0808EB0C0609EB0C0A02EBCC0C80
:100F100002EBC80802EBC60602EBC50502EBC707E9
:100F200002EBC90902EBCA0A9CED00DA9CED018ACA
:100F3000D8ED00CA96ED00CAD5ED00BA97ED00BA1B
:100F4000D9ED00AADAED008AD8ED017A96ED01AA72
:100F500095ED017AD7ED016A99ED016ADAED019A12
:100F6000DDF800C00CEB0307FD1805EB030A0AEBE4
:100F7000030808EB030606EB030B00EBCC0900EBC0
:100F8000C808D9ED000A98ED000A00EBC70700EB8E
:100F9000C606D7ED001A96ED001A70EE803A0BEBFC
:100FA000030E70EEC00A31EE810A00EBC50500EBBE
:100FB000CB0B31EEC11AD5ED001A9BED002A00EBE8
:100FC000CA0A00EBCE0E31EE824A71EEC21A9AEDD9
:100FD000002ADEED002A32EE223A32EE622A73EE69
:100FE000C42A73EE843A30EE435A30EE030A33EEED
:100FF000803A73EEC0DA89ED003A99ED010A98ED76
:10100000013AD7ED013A95ED014A70EE03EA30EE70
:10101000433A96ED010A9AED01EADEED014A33EE1C
:10102000809A73EEC03A9BED010A74EE005A34EEDA
:10103000404A3EEE240A7EEE644A3EEEE5EA7EEE4B
:10104000A55A79EE40EA39EE009A32EEAE0A72EE17
:10105000EE2A75EE89EA35EEC99A7EEE455AC9ED5B
:1010600001EA3EEE055A2BEEADEA67EE09EA2BEEF9
:10107000899A67EE2DDA3EEE2EEA39EE6D9A88ED0A
:1010800000EA67EEA5DA88ED019A2CEE809A6CEE04
:10109000A55A27EE800A39EE2D9A35EEC00A85ED65
:1010A000009A66EE055A85ED010A2AEEA20A2AEE9A
:1010B000855A66EE222A30EE250A8BED000A35EEBF
:1010C000620A73EEA42A8BED010A31EE420A31EE78
:1010D000021A33EEE42A62EE8F3A20EE0F0A21EE76
:1010E0000F1A22EE0F2A70EEC02A30EE800A71EE3F
:1010F000C10A71EE811A33EE421A33EE022A34EE3F
:10110000633A34EE234A70EE043A30EE444A01E08A
:10111000F304353F72EE834A72EEC32A32EE613A2F
:1011200032EE210A71EE601A71EE200A2DEE232AAA
:1011300028EE031A2DEE033A68EE233AA44432EE69
:10114000011A28EE842A8C4587ED001A33EE631AC3
:1011500029EE843A87ED011A29EE801A28EE800ADA
:1011600032EE011A30EE430A26EEA42A8EED001A62
:101170008EED010A2BEE240A26EEA11A6BEE211A3F
:1011800030EE010A2CEE221A86ED000A31EEC20A78
:101190006AEE221A86ED010A2AEE200A6CEE200A77
:1011A00031EE000A8AED000A30EEE10A8AED010A0A
:1011B000FFF4D8AEDDF800C00CF1010CCDF800C092
:1011C00063453FF691AEDDF854C04FF6FF7404EA74
:1011D000CC0CCDF854C0072B3FF6A0AD02B0BDEC4F
:1011E000108B04B0BDE8F08F0FB41CB50C0007AA3B
:1011F000009001D02044401E074B7B44694601907B
:10120000069800F046FB002C03D06946002000F051
:1012100053FB1CBC5DF814FBC50600002DE9F04132
:101220000E460446002020622046E168884730B31D
:10123000252805D0D4E901219047206A401CF2E717
:10124000E168204600278847050018D0A5F1410035
:10125000192802D820354FF4006732462946204627
:101260002760FFF759F840B1012804D0F61D26F099
:1012700007060836D8E7361DD6E72846DAE7206A9B
:10128000BDE8F08140EA0103024630B59B0710D16A
:101290004FF0013400E008C208C91D1B9D4315EA48
:1012A000C41FF8D013F0FF0102F8011B0DD01B0A78
:1012B000F8E711F8013B002B02F8013B05D011F8CB
:1012C000013B002B02F8013BF3D130BD032A40F271
:1012D000308010F0030C00F0158011F8013BBCF1D8
:1012E000020F624498BF11F801CB00F8013B38BFF0
:1012F00011F8013BA2F1040298BF00F801CB38BFFE
:1013000000F8013B11F0030300F02580083AC0F01B
:10131000088051F8043B083A51F804CBA0E80810C3
:10132000F5E7121D5CBF51F8043B40F8043BAFF3F6
:101330000080D20724BF11F8013B11F801CB48BF50
:1013400011F8012B24BF00F8013B00F801CB48BF86
:1013500000F8012B704710B5203AC0F00B80B1E8BF
:101360001850203AA0E81850B1E81850A0E81850DA
:10137000BFF4F5AF5FEA027C24BFB1E81850A0E8E3
:10138000185044BF18C918C0BDE810405FEA827CFD
:1013900024BF51F8043B40F8043B08BF7047D20714
:1013A00028BF31F8023B48BF11F8012B28BF20F8B5
:1013B000023B48BF00F8012B70474FF000020429A0
:1013C000C0F0128010F0030C00F01B80CCF1040C74
:1013D000BCF1020F18BF00F8012BA8BF20F8022BA8
:1013E000A1EB0C0100F00DB85FEAC17C24BF00F84E
:1013F000012B00F8012B48BF00F8012B70474FF07C
:10140000000200B5134694469646203922BFA0E854
:101410000C50A0E80C50B1F12001BFF4F7AF090760
:1014200028BFA0E80C5048BF0CC05DF804EB890051
:1014300028BF40F8042B08BF704748BF20F8022B94
:1014400011F0804F18BF00F8012B704770477047AC
:10145000704710B500F042FA006810BD10B50446A0
:1014600000F03CFA046010BD70472DE9FF4F0C46B8
:101470001E464FF0FF378BB0D2E90001DDF86080E7
:101480000A908A46C1F30A5505B93D46002108462F
:1014900007F034FFBAF1000F00F4400005DA00EB6A
:1014A00080004FF4400101EA50004FEA9059B9F131
:1014B000010F00DDB9460A9850EA4A000ED044F602
:1014C0001050A5F2FF3545432F14B8F1000F1ED080
:1014D0007542291E1EDDC9F100021CE0B8F1010FA2
:1014E0004FF0000001D0302103E0F24305E0215429
:1014F000401CB042FBDB30460022002121540B99F6
:10150000C1F80880C1E900200FB0BDE8F08FBD1B15
:101510006D1CDEE74A4600DA694206A800F080FA50
:1015200006AB93E8070003AB83E8070050460A992F
:1015300000F0E5FB8DE80700A0F500501F38009093
:101540000398002D0ADD42F21F014A460844002399
:1015500003A90390684600F04EFE09E0A0F5005094
:101560004A461F38002303A90390684600F058FE3E
:101570008DE807000004000C03D04FF0FF30410855
:1015800000E01046B8F1000F03D00022009215468B
:101590001EE0751E05D400F0A5F9303262556D1EAF
:1015A000F9D5B3460122084302D000227F1C04E093
:1015B0002078302801D100227F1E002A099784D08C
:1015C0001DE0112D07DA00F08DF9303262556D1CE7
:1015D00050EA0102F5D1084302D00098C8B10EE0EC
:1015E0000021681E05E0235C625C63542254401EA7
:1015F000491C8142F7DBAB46A81B401E0990002026
:1016000004F80B000B98099AC0F80880C0E9002B79
:101610007AE711264FF0000857E72DE9F04F88468A
:101620000446D21D22F0070191B0D1E90001CDE9B5
:101630000A0104F0F8FD02460B98C00F01D02D20DE
:1016400007E02068810701D52B2002E0202101EA74
:10165000C000032A099001D0072A05DB0346414652
:10166000204600F09DF90BE12078800601D5E06965
:1016700000E00620B8F1650F814606D0B8F1660F8C
:1016800018D0B8F1670F70D131E00020B9F1110F17
:10169000009001DB112301E009F101030AAA01A96D
:1016A0000CA8FFF7E2FEDDE90C70002609F1010548
:1016B000834647E001204B4600904FF000470AAABE
:1016C00001A90CA8FFF7D1FEDDE90DB00C995D462C
:1016D000002610B909F101000D18B9EB050003D47B
:1016E000C0F1FF3609F10105A5EB09002BE0B9F1C6
:1016F000010F01DA4FF001090020B9F1110F00903C
:10170000484601DD112300E003460AAA01A90CA8FE
:10171000FFF7ABFEDDE90C704D46002683462078CE
:1017200000070AD4AB4500DA5D4601A8012D04DDAF
:10173000411911F8011C302907D04F4502DA17F181
:10174000040F04DA012082460FE06D1EEEE7002F41
:1017500002DCED1B3E4403E0781CA84200DD7D1C4A
:10176000B81B00F1010A4FF000472078000703D4AE
:10177000AA4501DB4FF0FF3A0021B7F1004F0DF110
:1017800043088DF8431024D002202B23002F01DAC8
:101790007F422D230A21021EA0F1010000DC5FB16F
:1017A00097FBF1FC97FBF1F201FB1C7C17460CF157
:1017B000300C08F801CDEEE7A8F101000370218894
:1017C000090501D5452100E06521A0F1010800F8D7
:1017D000011C09980FA9A1EB0807FF1D00B101200A
:1017E000411901EBEA70A1693844081A401EA06152
:1017F0002078C00602D42046AFF30080099828B1B3
:10180000D4E901219047206A401C20622078C0065C
:1018100022D52046AFF300801EE0002E04DBB34546
:1018200002DD01A8805D00E03020D4E9012190476D
:10183000206A401C2062761CAAF101005FEA000ABF
:101840000AD100F047F8C0680168405CD4E9012182
:101850009047206A401C2062281EA5F10105DCDCAF
:1018600007E0D4E9012118F8010B9047206A401CD9
:101870002062381EA7F10107F3DC2046AFF3008099
:10188000032011B041E6000001694A1C026108789A
:10189000704700B58FB0CDE90131002105910549B0
:1018A0007944CDE9031011466846FFF7B7FC0FB045
:1018B00000BD0000E5FFFFFF0A6802F8010B0A60A7
:1018C0007047D1E900239A4202D2531C0B6010707A
:1018D000704700000048704730C901200048704739
:1018E00010C9012030B5B0F10A024FEA900E71F133
:1018F00000034EEA817EB0EB0E0061EB91014FEAEE
:10190000101E4EEA017E10EB0E0041EB11114FEA62
:10191000102E4EEA016E10EB0E0041EB11214FEA42
:10192000104E4EEA014E10EB0E0041EB11414018F3
:1019300041F100014FEAD00040EA41704FEAD10185
:1019400010EB80054FEA810444EA907444EB0104F3
:101950006D1944EB0404521BA3414FF0000348BF30
:101960000A3200D530BD401C41F1000130BD0000FD
:101970001FB584B000200A9C06AB04AA02A90094FB
:10198000AFF3008018B1DDE9020108B010BD0348D3
:10199000204000F0E9F800200146F6E70000207C36
:1019A0002DE9F0411F46044603260168072A01F489
:1019B000006004DB08B116A505E016A503E008B138
:1019C00015A500E015A521F010002060A069C01E3B
:1019D000A0610FB1401EA0612046AFF300804FB15F
:1019E000D4E9012138469047206A401C2062C01C7F
:1019F000206206E0206AFAE7D4E9012115F8010B1C
:101A00009047761EF8D22046AFF30080BDE8F08103
:101A10004E414E006E616E00494E4600696E660092
:101A20002DE9F047814616468AB0354878440DC8FE
:101A30008DE80D0032487844801C03AC0DC884E862
:101A40000D0041F69B300844372190FBF1F290FBEA
:101A5000F1F5A5F1800501FB12041B3C02D564429F
:101A6000012000E00020DFF898A080460027FA441B
:101A7000AAF1BE0A0EE0E0070AD03246684607EB3C
:101A8000470101230AEB810100F0CAFB8DE8070042
:101A900064107F1C002CEED1194F7F44AE3F19E03B
:101AA000E80715D007EB04100DF1180A90E80E00B6
:101AB0008AE80E00C068F04201D1981908903246B9
:101AC000012306A903A800F0ABFB03AB83E80700E2
:101AD0006D10641C002DE3D14FF0010332466946BE
:101AE000B8F1000F03A802D000F085FB01E000F080
:101AF00097FBC9E90001C9F808200AB0BDE8F087E2
:101B00009CD901000048704710C901207546FFF7B5
:101B1000F9FFAE4605006946534620F007008546AA
:101B200018B020B5FEF728FCBDE820404FF00006B5
:101B30004FF000074FF000084FF0000B21F00701B5
:101B4000AC46ACE8C009ACE8C009ACE8C009ACE8F8
:101B5000C0098D46704710B50446AFF3008020469B
:101B6000BDE81040FEF7F4BB10B500F04BF8BDE83F
:101B7000104000F041B800004FF0013C50F8042B39
:101B800051F8043B9A4221D1A2EB0C03934313EA90
:101B9000CC1317D150F8042B51F8043B9A4215D1BD
:101BA000A2EB0C03934313EACC130BD150F8042B94
:101BB00051F8043B9A4209D1A2EB0C03934313EA78
:101BC000CC13DBD04FF00000704700BFD01A01BA31
:101BD000B1FA81F101F0180122FA01F0CB40C1F114
:101BE0002001DBB2C0B2C01A2CFA01F3D11A914322
:101BF00011EAC311E6D17047002801D000F058B8AF
:101C00007047000010B5022803D0410103D50DA193
:101C100012E0002010BD010101D50FA10CE0C100B0
:101C200001D511A108E0810001D512A104E0400016
:101C300001D513A100E0002115A000F03FF801201C
:101C400010BD0000496E76616C6964204F7065724A
:101C50006174696F6E0000004469766964652042B2
:101C600079205A65726F00004F766572666C6F77E7
:101C700000000000556E646572666C6F77000000AE
:101C8000496E657861637420526573756C740000E9
:101C90005349474650453A2041726974686D6574EE
:101CA000696320657863657074696F6E3A2000001F
:101CB00001491820ABBEFEE72600020070B50546BC
:101CC0000C460A2000E06D1C00F011F835B12878B0
:101CD0000028F8D102E0641C00F009F814B1207863
:101CE0000028F8D1BDE870400A20AFF3008008B5A5
:101CF00069468DF800000320ABBE08BD70475FEA5F
:101D0000400C08BF91F0000F4FEA8C234FEAC1222C
:101D100043EA51514FEA1C5018BF00F5F0404FEA1A
:101D2000300018BF41F000415FEA6C5C00F0298090
:101D3000BCF1FF3F08BF40F080407047130C06BF66
:101D400012044FF0100C4FF0000C130E04BF1202DF
:101D50000CF1080C130F04BF12010CF1040C930FCB
:101D600004BF92000CF1020CD30F04BF52000CF11F
:101D7000010C11464FF00002A0F11F00A0EB0C0077
:101D8000704711F0004F08BF704731F000413FF439
:101D9000D5AF0B0C06BF09044FF0100C4FF0000C30
:101DA0000B0E04BF09020CF1080C0B0F04BF090154
:101DB0000CF1040C8B0F04BF89000CF1020CCB0F4B
:101DC00004BF49000CF1010CCCF12003A0EB0C0086
:101DD00022FA03F302FA0CF241EA030100F10100D6
:101DE000704720F07F4C80EA030023F07F47ACEB84
:101DF000070303F57C5300F0004003F1FF032DE9D6
:101E000080494FEA154B09B44FEA144325EA0B4EBB
:101E100024EA03480FF2042606EB132749083E780C
:101E20005FEA320203FB0667C7F5000707FB06F609
:101E30004FEA54374FEAD64606F1020607FB066C16
:101E4000CCF1005C4FEA1C472CEA074C07FB06F478
:101E50000CFB06F504EB15464FEA961634BF00203E
:101E60004FF000404FEAD13706FB07FC4FEA1C4C0D
:101E70000CFB0BF7D21B03FB0CF761EB07010CFB10
:101E80000EF7B0EB074072EB17420CFB08F734BFBC
:101E9000A2EB0742B2EB074261EB17414FEA0C4459
:101EA0004FEA910706FB07FC4FEA1C4C0CFB0BF7B3
:101EB000B0EBC74072EB573203FB0CF734BFA2EB19
:101EC000C742B2EBC74261EB57310CFB0EF7B0EBE8
:101ED000C70072EB57720CFB08F734BFA2EBC702C6
:101EE000B2EBC70261EB5771039F4FEA816141EA90
:101EF000921104EBCC044FEAD1374FEA826206FB21
:101F000007FC42EA90124FEA80604FEA1C4C0CFB3F
:101F10000BF7D21B03FB0CF761EB07010CFB0EF771
:101F2000B0EB074072EB17420CFB08F734BFA2EB93
:101F30000742B2EB074261EB17414FEA8C554FEA7B
:101F4000910704EB9C2406FB07FC4FEA1C4C0CFB9E
:101F50000BF7B0EBC74072EB573203FB0CF734BF03
:101F6000A2EBC742B2EBC74261EB57310CFB0EF755
:101F7000B0EBC70072EB57720CFB08F734BFA2EB53
:101F8000C702B2EBC70261EB577115EB4C254FEA64
:101F9000816141EA92114FEA82624FEAD13742EA07
:101FA000901206FB07FC44F100044FEA80604FEA00
:101FB0001C4C0CFB0BF7D21B03FB0CF761EB07016E
:101FC0000CFB0EF7B0EB074072EB17420CFB08F767
:101FD00034BFA2EB0742B2EB074261EB174115EBAE
:101FE0001C154FEA813141EA92414FEA823242EABE
:101FF00090424FEA80304FEA0C7644F1000448EA00
:1020000003434EEA0B484FF0000EB2EB080C71EBA5
:10201000030724BF624639464EEB0E0E4FF0000B0D
:102020000018524149414BEB0B0BB2EB080C71EB22
:1020300003077BF1000B24BF624639464EEB0E0EC0
:102040004FF0000B0018524149414BEB0B0BB2EB28
:10205000080C71EB03077BF1000B24BF6246394685
:102060004EEB0E0E51EA020718BF46F0010616EBC2
:102070000E7655F1000254F1000103D5BDE8890147
:10208000BDE80088BDE88901BDE80048B6195241A5
:1020900041EB0101A3F10103704780807F7E7D7CCD
:1020A0007B7A7978777676757473727171706F6EEA
:1020B0006E6D6C6C6B6A6A69686867666665646495
:1020C000636362616160605F5F5E5E5D5D5C5C5B1F
:1020D0005B5A5A595958585757565655555554548E
:1020E000535352525251515050504F4F4F4E4E4DEC
:1020F0004D4D4C4C4C4B4B4B4A4A4A494949484838
:102100004847474747464646454545444444444377
:1021100043434342424242414141002B9C4630D41A
:1021200077002BD01CB54FEA370703B44FF01000EF
:102130004FF01001BAF1000F06D0BCF1000FDCBF68
:1021400040F0080040F0080107F0D8F80FBCBDE8E7
:1021500010400BF1010BBBF1010F08BF5FEA17073D
:1021600022BF12F1010211F101014FF0004143F1D0
:10217000000300F0004043EA00007047F9D357081D
:10218000D0E746EA064613F1400F4FEA16461FDD38
:1021900013F1200FDFBF16430A46002120335B42B4
:1021A000BED0C3F1200746EA064602FA07F74FEA17
:1021B000164646EA0706C3F1200722FA03F201FA9F
:1021C00007F721FA03F14FF0000342EA0702A7E7FD
:1021D00046EA020646EA06464FEA164646EA01067F
:1021E000BCBF46EA0646360C4FF000034FF0000233
:1021F0004FF0000194E72DE9804C9A46934670B465
:1022000091E8380007C831EA400C48BF34EA430C73
:1022100003D5FFF7E6FDFFF780FFF0BCBDE8008CBB
:102220002DE9804C9A46934670B491E8380007C86F
:1022300010F0804F08BF13F0804F03D100F005F875
:10224000FFF76BFFF0BCBDE8008C20F07F4780EA11
:10225000030023F07F4C07EB0C03A3F57C5300F045
:102260000040A3F1FE0392F0000F00F0B38095F060
:10227000000F00F077802DE901494FEA11404FEA45
:10228000144621EA004800FB06FC24EA064708FB46
:1022900006F607FB08F800FB07F718EB06484CEBBF
:1022A000164C4FEA124B18EB07484FEA15464CEB19
:1022B000174022EA0B4E0BFB06FC25EA06470EFBF5
:1022C00006F607FB0EFE0BFB07F71EEB064E4CEB6C
:1022D000164C4FF000061EEB074E4CEB174B18EB5D
:1022E0000B0840F1000018EB0E0B58EB000840F112
:1022F00000008F1A4FF000013CBFC943661B14BF9A
:10230000B5EB040C00213CBFC943F61B4FEA174450
:102310004EEA8E0E27EA04454FEA1C4704FB07628B
:102320002CEA074C05FB07F70CFB05F604FB0CFC3D
:1023300016EB074642EB174216EB0C4642EB1C42EB
:102340001BEB060658EB0202414146EA9E0601D508
:10235000BDE80189B619524141EB0101A3F1010326
:10236000BDE801894FEA14454FEA114724EA0546C2
:1023700021EA074C05FB07F406FB07F70CFB06F107
:1023800005FB0CFC11EB074144EB17444FEA1247E5
:1023900011EB0C4144EB1C4422EA074C05FB07F20D
:1023A00006FB07F70CFB06F605FB0CFC16EB0746D5
:1023B00042EB174216EB0C4642EB1C456A1854F1EF
:1023C000000148BF7047B619524141EB0101A3F12A
:1023D0000103704795F0000F37D04FEA11424FEAE2
:1023E000144721EA024624EA074C02FB07F106FBE8
:1023F00007F70CFB06F402FB0CFC14EB074441EB63
:1024000017414FEA154714EB0C4441EB1C4125EAF8
:10241000074C02FB07F506FB07F70CFB06F602FB71
:102420000CFC16EB074645EB174516EB0C4645EB47
:102430001C42121951F1000148BF7047B6195241B0
:1024400041EB0101A3F1010370474FEA14454FEA44
:10245000114724EA054621EA074C05FB07F106FB74
:1024600007F70CFB06F24FF0000605FB0CFC12EB25
:10247000074241EB174112EB0C4251EB1C4148BFA4
:102480007047921841EB0101A3F10103704700006E
:102490002DE9F0432DED048BA1B00024A0460020CF
:1024A00020903C2111A8FEF7AAFF00200D900E906D
:1024B0000F90109000278146B7EE000AB0EE408AD8
:1024C000FD48FE49097800EB4135FD48006800EE03
:1024D000100ADFEDFC0AB4EEE00AF1EE10FA12D8B1
:1024E000F748006800EE100AB5EEC00AF1EE10FAE7
:1024F00009DDF348006800EE100AF7EE000A80EEEE
:10250000801AB0EE418A002404E035F81400074434
:10251000601C84B2B4F5805FF7DBC7F30F392E4639
:10252000002408E035F81400A0EB090000B226F8FA
:102530001400601C84B2B4F5805FF3DB00242CE04F
:1025400000EE104AB8EE400ADFEDDF0A20EE200A66
:10255000DFEDDE0A80EE201AF0EE418AB0EE680A66
:10256000FDF71CFFF6EE000AB6EE001A41EE400A37
:1025700036F9140000EE100AB8EEC00A9FEDD41A26
:1025800020EE010A20EE080A20EE800AD14800EB76
:10259000840080ED000A601C84B2B4F5805FCFDB5C
:1025A000C82305229FEDC70A4FF48051084600F06A
:1025B000BDFE0DA9C74800F047FEBDF8400000EE83
:1025C000100AB8EE400A8DED120A9DED0F0A8DED4E
:1025D000110A0E999DED120ABCEEC00A10EE102AE7
:1025E00090B2B6EE000A01F0EFF9F0EE000A20EE2C
:1025F000200A8DED130A0E999DED120ABCEEC00A59
:1026000010EE102A90B2B7EE000A01F0DDF9F0EEFC
:10261000000A20EE200A8DED140A0E999DED120A93
:10262000BCEEC00A10EE102A90B2B7EE080A01F014
:10263000CBF9F0EE000A20EE200A8DED150A0E9976
:102640009DED120ABCEEC00A10EE102A90B2B0EE58
:10265000000A01F0B9F9F0EE000A20EE200A8DED33
:10266000160A0E999DED120ABCEEC00A10EE102A51
:1026700090B2B0EE040A01F0A7F9F0EE000A20EEE5
:10268000200A8DED170A0E999DED120ABCEEC00AC4
:1026900010EE102A90B2B0EE080A01F095F9F0EEB3
:1026A000000A20EE200A8DED180A0E999DED120AFF
:1026B000BCEEC00A10EE102A90B2B1EE000A01F092
:1026C00083F9F0EE000A20EE200A8DED190A0E992A
:1026D0009DED120ABCEEC00A10EE102A90B2B1EEC7
:1026E000040A01F071F9F0EE000A20EE200A8DEDE7
:1026F0001A0A0E999DED120ABCEEC00A10EE102ABD
:1027000090B2B1EE080A01F05FF9F0EE000A20EE97
:10271000200A8DED1B0A704A01200D9900F0F4FE8D
:102720009FED6E0A8DED1C0A00200C900CAB1CAACC
:102730004FF400616A48FEF77DFA9DED1C0ADFED5B
:10274000690A20EE200A8DED1C0A634A02200D99C9
:1027500000F0DAFE9FED610A8DED1D0A0CAB1DAA9B
:102760004FF400615E48FEF765FA9DED1D0ADFED4E
:102770005D0A20EE200A8DED1D0A9DED120ADFEDA7
:10278000510AB4EEE00AF1EE10FA33DB9FED530A82
:102790008DED110A9FED510A8DED120A9FED4F0A42
:1027A0008DED130A9FED4D0A8DED140A9FED4B0A36
:1027B0008DED150A9FED490A8DED160A9FED470A2A
:1027C0008DED170A9FED450A8DED180A9FED430A1E
:1027D0008DED190A9FED410A8DED1A0A9FED3F0A12
:1027E0008DED1B0A9FED3D0A8DED1D0A9FED3B0A05
:1027F0008DED1C0A0B208DF87C0003F049F98DED5E
:102800001E0A282102A8FEF7FAFD9DED110A10EE1E
:10281000101A084606F014FC41EC190B8DED009BD4
:1028200031A2282102A8FEF7DFFC02AA2FA1002076
:1028300002F026FD9DED120A10EE101A084606F071
:10284000FFFB41EC190B8DED009B27A2282102A86C
:10285000FEF7CAFC02AA29A1002002F011FD9DED9D
:102860001D0A10EE101A084606F0EAFB41EC190B9F
:102870008DED009B1CA2282102A8FEF7B5FC02AA40
:1028800023A1002002F0FCFC9DED1C0A10EE101AA2
:10289000084606F0D5FB41EC190B8DED009B12A20A
:1028A000282102A8FEF7A0FC02AA1EA1002002F027
:1028B000E7FC9DED1E0A3DE0C84100100D00002020
:1028C0004800001000007A44DB0FC940000080453A
:1028D0002D439C3DC8810010C8010010000000007D
:1028E000C8110010CDCC1C41256600006163635FF8
:1028F0007065616B3A25730D0A00000062617365B3
:102900005F6672657175656E63793A25730D0A00AD
:102910006F66667365745F7065616B3A25730D0A47
:102920000000000073706565645F7065616B3A2537
:10293000730D0A0010EE101A084606F081FB41ECF8
:10294000190B8DED009BAFF26002282102A8FEF763
:102950004BFC02AA41A1002002F092FC9DED130A5B
:1029600010EE101A084606F06BFB41EC190B8DEDCA
:10297000009BAFF28C02282102A8FEF735FC02AAC8
:102980003BA1002002F07CFC9DED140A10EE101A11
:10299000084606F055FB41EC190B8DED009BAFF29C
:1029A000B802282102A8FEF71FFC02AA36A10020C7
:1029B00002F066FC9DED150A10EE101A084606F0AE
:1029C0003FFB41EC190B8DED009BAFF2E402282197
:1029D00002A8FEF709FC02AA31A1002002F050FC77
:1029E0009DED160A10EE101A084606F029FB41EC80
:1029F000190B8DED009BAFF21012282102A8FEF7F3
:102A0000F3FB02AA2CA1002002F03AFC9DED170A6C
:102A100010EE101A084606F013FB41EC190B8DED71
:102A2000009BAFF23C12282102A8FEF7DDFB02AAB0
:102A300027A1002002F024FC11A920A803F02EF801
:102A40008046BDF88010404603F072F8002001F087
:102A5000AFFA21B0BDEC048BBDE8F08374656D70F6
:102A6000657261747572653A25730D0A0000000085
:102A70006861726D6F6E69635F7065616B5F305F17
:102A800035203A25730D0A006861726D6F6E6963B7
:102A90005F7065616B5F312020203A25730D0A005D
:102AA0006861726D6F6E69635F7065616B5F312E17
:102AB00035203A25730D0A006861726D6F6E696387
:102AC0005F7065616B5F322020203A25730D0A002C
:102AD0006861726D6F6E69635F7065616B5F325FB5
:102AE00035203A25730D0A0070B504462188144834
:102AF000144A127800EB4232134803880088401CC5
:102B0000114D288022F8131028460088B0F5805F08
:102B100014DB002001F05AFA0020294608800948F9
:102B200000780A4908700748007808B9012000E0D9
:102B3000002004490870042003F0B8F970BD0000BB
:102B4000C8410010100000200E0000200D000020E1
:102B500010B50021084600F01FFB0021084601F0D7
:102B600017F90021084601F0C7F910BD70470000B1
:102B700010B50024012000F0FFF9044640F6B830FB
:102B8000844205DB01200C49087000F095FF11E03C
:102B90000A2C09DC022008490870C8230A220021F7
:102BA000012000F057FF05E00020034908700120D4
:102BB00000F0D6FF10BD00000C00002021B182689B
:102BC00042F00102826003E0826822F0010282602A
:102BD000704700000021084A1168084A1140D0E9F6
:102BE00000231A4383681A43C3681A431143044AF3
:102BF000C2F804137047000004230140E030FCFFDA
:102C0000002001400021016041608160C160704787
:102C100021B1826842F00202826003E0826822F001
:102C200002028260704721B1826842F48072826041
:102C300003E0826822F480728260704721B182686A
:102C400042F40072826003E0826822F400728260C3
:102C50007047000030B50246002000235068104C39
:102C600020400D790C6844EA0524204350609068A8
:102C70000C4C2040D1E903542C438D682C434D79F2
:102C800044EA450420439060D06A20F470000C7D33
:102C9000641EE4B2234340EA0350D06230BD00001A
:102CA000FFFEFFFCFDF7FFC0F0B504460D46002017
:102CB0000021092D11DDE068A5F10A0606EB4607A3
:102CC000072606FA07F18843A5F10A0606EB460631
:102CD00003FA06F10843E0600CE0206905EB4507C4
:102CE000072606FA07F1884305EB450603FA06F1C5
:102CF00008432061072A0FDA606B561E06EB860731
:102D00001F2606FA07F18843561E06EB860605FACB
:102D100006F10843606322E00D2A0FDA206BD61F0C
:102D200006EB86071F2606FA07F18843D61F06EB37
:102D3000860605FA06F10843206310E0E06AA2F176
:102D40000D0606EB86071F2606FA07F18843A2F157
:102D50000D0606EB860605FA06F10843E062F0BDB3
:102D6000816841F0804181607047002101600171FC
:102D700041718160C16001610121017570470000EE
:102D800070B505460C46194991F82F11652211FBC3
:102D900002F1164A881822462946FEF797FA134987
:102DA00091F82F11652211FB02F1104A114481F8AC
:102DB0006440104690F83101401C114681F8310101
:102DC000084690F82F01401C81F82F01084690F822
:102DD0002F0191F8321190FBF1F201FB120003492F
:102DE00081F82F01082003F001F870BD4E0000109B
:102DF00010B5234890F8310100283BDD204890F8B9
:102E00003001652110FB01F01D49084490F8642051
:102E10001CA1002002F034FA194A92F830216523EF
:102E200012FB03F2164B1A4492F864101A4692F8F9
:102E30003021652312FB03F2114BD01804F004FA81
:102E40000F4890F83001401C0D4981F830010846C8
:102E500090F8300191F8321190FBF1F201FB120071
:102E6000074981F83001084690F83101401E81F889
:102E7000310103E00BA1002002F002FA10BD0000B6
:102E80004E0000104170705F52657620536F6D6583
:102E90007468696E67206C656E203A2025640D0A9F
:102EA000000000004170705F526576204E6F6E65C5
:102EB0000D0A00000CB5002000210091019100BF17
:102EC0000EE01F4A32F820200099114400911C4A5C
:102ED00002EB80025288019911440191411C88B291
:102EE000C828EEDBC8220099B1FBF2F1154A118027
:102EF000C8220199B1FBF2F1124A9180114609886A
:102F000000EE101AB8EE400ADFED0F0A20EE200A9C
:102F1000BCEEC00A10EE101A51801146898800EEEE
:102F2000101AB8EE400ADFED080A20EE200ABCEEC7
:102F3000C00A10EE101A8AB20249CA800CBD000005
:102F4000E404002000000020CD3B4E3F10B50849AE
:102F5000084801F0DFFC012809D10549054801F0C6
:102F6000AFFC002000F0EAF8042001F02DFF10BDB6
:102F700020800010106402400146024800EB8100EE
:102F8000408870470000002030B59DB004460D46D3
:102F9000182117A8FEF733FA0020159016903C214F
:102FA00006A8FEF72CFA00200290039004900590EA
:102FB0000190002C7ED10121080202F077F8012156
:102FC000022002F053F80121880502F04FF815A8FD
:102FD00001F0C6FE03208DF85800159000208DF8F2
:102FE0005B0003208DF8590015A9454801F049FE02
:102FF00006A801F00BFD4FF4C8700A90002006905F
:103000000990404808904FF400500E90C0100C906A
:1030100080100F903C480790C0140D9000200B903A
:103020004FF44030109006A9384801F0C3FC01214C
:10303000364801F05FFC02A8FFF7E4FD4FF4804042
:103040000490002002904FF4803003904FF47060A1
:10305000059002A8FFF7BEFD17A8FFF786FE012026
:103060008DF8610000201B901A90199002208DF8B5
:1030700070000020179001208DF8600017A92248E9
:103080004C38FFF7E7FD38208DF8040002208DF85A
:1030900005008DF8060001208DF8070001A801F059
:1030A000CDFE01221021194801F066FC01211648CD
:1030B0004C3800E01FE0FFF7ABFD012112484C380F
:1030C000FFF7BCFD0623012208210F484C38FFF70B
:1030D000EBFD0623022209210B484C38FFF7E4FDE3
:1030E000012109484C38FFF79EFD002106484C3865
:1030F000FFF764FD00E000BF00BF01201DB030BD40
:1031000000040240E40400204C200140106402400E
:1031100010B504460121074801F0ECFB01210648E7
:10312000FFF781FD01210448FFF748FD0248FFF742
:1031300017FE10BD106402400020014010B5044687
:1031400000210A48FFF73AFD00210848FFF76BFD10
:103150000021074801F0CEFB064805490C31086004
:103160004FF4C8700249091D086010BD00200140DD
:1031700010640240E404002010B5402001F062FC1D
:10318000012806D10021034802F0D7F9402001F0C0
:1031900053FC10BD0030014030B585B004460D46EB
:1031A00000200390049002900090019014B1012C33
:1031B00043D141E00121022001F058FF01218803A1
:1031C00001F074FF0121C80301F070FF03A801F0B2
:1031D000C7FD00208DF810004020039001208DF8DD
:1031E000130003208DF8110003A9164801F049FDD2
:1031F0000621012002F0CEF9684601F079FC40205A
:10320000009001208DF8060000208DF804000C20AD
:103210008DF80500684601F021FC17208DF80800A4
:1032200002208DF809008DF80A0001208DF80B00AE
:1032300002A801F003FE01E000E000BF00BF05B0FE
:1032400030BD00000004024070B52DED028B064633
:103250000D4600249FED310AB0EE408A9FED2F0A03
:1032600085ED020A00BF23E006EB840090ED000A22
:103270002B4901EBC40080ED000A9FED280A600095
:10328000401C01EB800080ED000A95ED020A06EB80
:103290008400D0ED000AB4EEE00AF1EE10FA05D297
:1032A00006EB840090ED000A85ED020A601C84B2F2
:1032B0001C484088A042D7DC01230022184901F5B0
:1032C0004040FDF711FC1648286016484288164910
:1032D0001348FDF79FF814486860012413E0124872
:1032E00000EB840090ED000AB4EEC80AF1EE10FA8B
:1032F00007DD0D4800EB840090ED000AB0EE408A37
:10330000AC81601C84B20749488800EBD071491039
:10331000A142E4DC0020BDEC028B70BD0000000087
:10332000208800200408002020080120F0B5044671
:1033300000EE901AF8EE600A4F48C0ED010A80EDE9
:10334000060A00EE902AF8EE600AC0ED040A00EECC
:10335000903AF8EE600AC0ED050A4480D0ED050A07
:1033600090ED011AF4EEC10AF1EE10FA02DB6FF0F3
:103370000100F0BD40484088B0F5807F3CD008DCBB
:10338000102813D020281BD0402823D0802863D1B8
:1033900029E0B0F5007F38D0B0F5806F3ED0B0F5B1
:1033A000006F44D0B0F5805F56D149E03348344EC9
:1033B00096E8A010F668C0E9087C8662C56157E00F
:1033C0002E48304F97E86010FF68C0E909C7C0E990
:1033D00007564DE02948DFF8B0C09CE8E0101C30EB
:1033E000A0E8E01044E02548DFF8A0C09CE8E01029
:1033F0001C30A0E8E0103BE02048DFF894C09CE8D7
:10340000E0101C30A0E8E01032E01C48DFF884C077
:103410009CE8E0101C30A0E8E01029E01748DFF835
:1034200078C09CE8E0101C30A0E8E01020E01348D1
:10343000DFF868C09CE8E0101C30A0E8E01017E05E
:103440000E48DFF85CC0DCE90075DCE9026CC0E91D
:10345000096CC0E907750BE00848DFF83CC0DCE9FF
:103460000076DCE9025CC0E9095CC0E9077600BFD0
:1034700000BF00207DE70000040800200448012070
:10348000D4950008E4950008F49500080496000817
:103490001496000824960008349600084496000804
:1034A0005496000810B50346002000BF03E01C5CE2
:1034B0001454441CA0B28842F9DB10BD2DE9F04140
:1034C00005460E461746002401F05EFB012802D196
:1034D000801EBDE8F08101F0B1FB0221502001F017
:1034E0000FFB00240AE0315D281901F081FB00BFC9
:1034F00001F04AFB0128FBD0601C84B2BC42F2DB25
:1035000001F06CFB0020E4E72DE9F0412DED088B84
:1035100005460F4616464FF400423946FE48FDF771
:103520001AFFFE48D0ED010A408800EE100AB8EEFE
:10353000400A80EE801AB0EE418AF84890ED040A05
:10354000C0EE080A10EE904A204605F079FD41ECE5
:103550001A0BB0EE4A0AF0EE6A0A03F0ADFCB0EEC8
:10356000409AF0EE609A51EC190B04F007FAEB491F
:103570008860084690ED050AC0EE080A10EE904AF1
:10358000204605F05DFD41EC1A0BB0EE4A0AF0EE64
:103590006A0A03F091FCB0EE409AF0EE609A51ECAA
:1035A000190B04F0EBF9DD49C860084605709FED82
:1035B000DC0A28EE000AF0EE408A002435E000EE36
:1035C000104AB8EEC00A28EE800AD4481C3000EB3E
:1035D000840080ED000AD149087804F053FE41ECE4
:1035E0001A0BCE481C3000EB840090ED000A10EE60
:1035F000101A084605F024FD41EC1B0BB0EE4A1AE8
:10360000F0EE6A1AB0EE4B0AF0EE6B0A02F02CFEF6
:10361000B0EE409AF0EE609A51EC190B04F0AEF95E
:10362000BE491C3141F82400641CBC49488800EBA9
:10363000D071B4EB610FC2DBB849488800EBD071A0
:103640004C1049E0B54A518801EBD1725210521E1C
:1036500000EE102AB8EEC00AF1EE680A20EE200A49
:10366000AE4A508800EBD072A4EB620200EE902AC2
:10367000F8EEE00A08EEA00AA84A1C3202EB840227
:1036800082ED000AA549087804F0FCFD41EC1A0B14
:10369000A2481C3000EB840090ED000A10EE101AD6
:1036A000084605F0CDFC41EC1B0BB0EE4A1AF0EEDB
:1036B0006A1AB0EE4B0AF0EE6B0A02F0D5FDB0EEDE
:1036C000409AF0EE609A51EC190B04F057F99349C7
:1036D0001C3141F82400641C90484088401EA042E0
:1036E000B0DC012025E08C4A02EBC00191ED000A1C
:1036F0008A491C3101EB8001D1ED000A80EE201ACD
:1037000002EBC00181ED001A4100491C02EB81016E
:1037100091ED000A81491C3101EB8001D1ED000AD5
:1037200080EE201A4100491C02EB810181ED001A54
:10373000401C7A494988491E8142D4DC022D69D156
:10374000764890ED040AC0EE080A10EE904A204632
:1037500005F076FC41EC1B0BB0EE4B0AF0EE6B0A69
:1037600003F0AAFBB0EE40AAF0EE60AA9FED6D0B4D
:1037700053EC102B51EC1A0B04F0D4FD41EC190B57
:1037800004F0FCF865498860084690ED050AC0EE33
:10379000080A10EE904A204605F052FC41EC1A0B44
:1037A000B0EE4A0AF0EE6A0A03F086FBB0EE409AE9
:1037B000F0EE609A51EC190B04F0E0F85749C8603C
:1037C000002019E0544A02EBC00191ED000AB1EE6D
:1037D000400A02EBC00181ED000A4100491C02EBE6
:1037E000810191ED000AB1EE400A4100491C02EB53
:1037F000810181ED000A401C484949888142E1DC91
:10380000464890ED060ADFED490A20EE200A80EDD9
:10381000060A56E0414890ED040AC0EE080A10EE90
:10382000904A204605F00CFC41EC1B0BB0EE4B0A15
:10383000F0EE6B0A03F040FBB0EE40AAF0EE60AA97
:1038400051EC1A0B04F09AF834498860084690ED60
:10385000050AC0EE080A10EE904A204605F0F0FB7B
:1038600041EC1B0BB0EE4B0AF0EE6B0A03F024FBAD
:10387000B0EE40AAF0EE60AA51EC1A0B04F07EF80C
:103880002649C860002017E0234A02EBC00191EDF1
:10389000000AB1EE409A4100491C02EB810191ED12
:1038A000000A02EBC00181ED000A4100491C02EB55
:1038B000810181ED009A401C184949888142E3DC6E
:1038C00000BF00200FE09FED1A0A134A02EBC0016F
:1038D00081ED000A9FED160A4100491C02EB8101AF
:1038E00081ED000A401C0D49498800EE101AB8EE1F
:1038F000400A0A49D1ED030A70EE600A00EE100A90
:10390000B8EEC00AF4EEC00AF1EE10FADBDC49882A
:1039100000EE101A0EE000003048012004080020DC
:10392000DB0FC940000000000000004000007A44A6
:1039300000000000B8EE400A2049D1ED020A30EE46
:10394000600ABDEEC00A10EE100A0FE01FED080A73
:103950001B4A02EBC00181ED000A1FED0B0A41007A
:10396000491C02EB810181ED000A401C1349498882
:103970008142EBDC01231A4611491248FDF7B4F8E5
:10398000002012E00E4A02EBC00191ED000A0B4943
:10399000D1ED060A20EE200AF0EE000A20EE200A01
:1039A00006EB800181ED000A401C044949888142F0
:1039B000E8DC0020BDEC088BBDE8F08104080020A5
:1039C0003048012020480120F0EE400A002200EE9D
:1039D000100AB8EE400A20EE200ABCEEC00A10EE33
:1039E000103A9AB201EB820393ED001ADFED021A4E
:1039F00081EE210A704700000000004510B50BA1C0
:103A0000002001F03DFC0021084600F0A9FC002147
:103A1000012000F0A5FC00210846FFF7B5FA00F0F0
:103A20006BF807A1002001F02BFC10BD4253505F42
:103A3000496E69742053746172740D0A00000000AD
:103A40004253505F496E697420436F6D706C6574AA
:103A5000650D0A002DE9F04180460D4616461F46C9
:103A60001EB317B3124800EB08142078022801DABD
:103A70002078207300202070A780A67065701DB983
:103A8000207840F00400207001F014FAA060207843
:103A900040F00200207002210648007801F0A3FAED
:103AA00002210448007801F047FABDE8F0810000E7
:103AB000880100100000001070B5044604EB840378
:103AC0000B4D05EB83035A7C04EB840305EB830366
:103AD0001B8999B204EB840305EB8303586801F05A
:103AE00048F90020034901EB0411087070BD000083
:103AF000689500088801001070B5002400BF29E017
:103B000004EB8401154A52F82100012101F0AEFABC
:103B100004EB8402114B03EB820202F1080104EB77
:103B2000840203EB8202506801F0ABF804EB8403DB
:103B30000A4D05EB83035A7C04EB840305EB8303F6
:103B40001B8999B204EB840305EB8303586801F0E9
:103B500010F9641C042CD3D370BD000068950008D4
:103B600070B5044604EB84030B4D05EB83031A7C0C
:103B700004EB840305EB83031B8999B204EB8403F4
:103B800005EB8303586801F0F4F80120034901EBC9
:103B90000411087070BD00006895000888010010CD
:103BA0002DE9F0470025AAE05B4800EB05142078DA
:103BB00000F0020000287CD001F07CF90646A168E4
:103BC000B14277D8207800F0010020B3A078C0F18E
:103BD000640000F0FF09207820F00100207005EB60
:103BE0008503DFF838C10CEB83035A7C05EB8503B2
:103BF0000CEB83031B8999B205EB85030CEB830364
:103C0000586801F0B6F8207800F0040040BB6078F6
:103C1000401E607024E0607840B9207800F0040015
:103C200020B9207880F00200207019E094F802900A
:103C3000207840F00100207005EB8503DFF8DCC040
:103C40000CEB83031A7C05EB85030CEB83031B89C8
:103C500099B205EB85030CEB8303586801F089F8F2
:103C6000207800F0020058B1A08800FB09F0642120
:103C7000B0FBF1F01FFA80F806EB0800A06035E019
:103C80004FF00008207BB0B105EB8503DFF88CC056
:103C90000CEB83031A7C05EB85030CEB83031B8978
:103CA00099B205EB85030CEB8303586801F061F8CA
:103CB00015E022E016E005EB8503DFF860C00CEBB1
:103CC00083035A7C05EB85030CEB83031B8999B2B4
:103CD00005EB85030CEB8303586801F04AF80020DC
:103CE000207303E02089801B1FFA80F827B1B8F108
:103CF000000F02D0B84500DA4746681CC5B2042D53
:103D0000FFF652AF2FB13A4602210548007801F084
:103D100059F9BDE8F0870000880100106895000897
:103D20000000001010B50B490B4800F0F3FD01280E
:103D30000ED10024094804784078084908700846E4
:103D4000447003F0F3FB0349034800F0B9FD00BFE2
:103D500010BD0000008020104064024008000020D8
:103D600010B56021084801F0BBFB01280BD10648C3
:103D700001F0E0FB05490880084603F0D7FB60210D
:103D8000014801F0A3FB10BD003001400A000020F3
:103D900030B589B004460D46002007900890069083
:103DA000142101A8FDF72BFB002C64D1012108038D
:103DB00001F07CF90121022001F058F907A800F078
:103DC000CFFF02208DF820003820079001208DF8C9
:103DD000230000208DF8220003208DF8210007A980
:103DE000274800F04EFF05220321254800F091FFEF
:103DF00005220421224800F08CFF052211462048AC
:103E000000F087FF01A801F0B8FB2020ADF81000FA
:103E10000120ADF80C000020ADF80A004FF400605E
:103E2000ADF808000020ADF80400ADF812004FF422
:103E30008270ADF806004FF40070ADF80E0001A9D5
:103E4000104801F07CFB23208DF8180000208DF82D
:103E5000190001208DF81A008DF81B0006A800F04B
:103E6000EDFF01226021074801F054FB01210548C4
:103E700001F020FB00E000BF00BF09B030BD000032
:103E8000000402400030014002480068401C014923
:103E900008607047040000107FB5684601F016F90D
:103EA0004FF47A720198B0FBF2F1481EB0F1807FB6
:103EB00000D31BE0481E4FF0E022506150170F2244
:103EC000002804DB13071C0E094B1C5406E01307E3
:103ED0001D0E084B00F00F04241F1D5500BF0020CD
:103EE0004FF0E02290610720106100BF7FBD00000D
:103EF00000E400E018ED00E030B58BB004460D465C
:103F0000002C4DD10121022001F0C0F80121022036
:103F100001F0ACF802220521234800F0FAFE20202F
:103F2000099002208DF8280003208DF82900002038
:103F30008DF82A0001208DF82B0009A91A4800F0FD
:103F4000A0FE5320ADF818000020ADF81A00F320B1
:103F500007900020ADF8200006A9144801F020FDCC
:103F60007A2003906020ADF804000120ADF806002F
:103F70000220ADF8100001A90C4801F0B1FC0821A5
:103F80000A4801F0FFFC0121084801F081FC0121F1
:103F9000064801F095FC0121044801F085FC00E091
:103FA00000BF00BF0BB030BD000402400004004061
:103FB00010B5044624B90121034801F075FC00E066
:103FC00000BF00BF10BD00000004004010B5044653
:103FD00024B90021034801F067FC00E000BF00BFE6
:103FE00010BD00000004004010B53249324800F016
:103FF00091FC01285DD12F492F4800F061FC2E482B
:1040000000F083FC002854D12C4840892B49098AB0
:10401000884208DD294840892849098A401A81B226
:104020002648418102E00021244841812348C0897B
:104030002249098A084481B22048C181C189008986
:1040400091FBF0F200FB121081B21C48C181408943
:10405000002828DD0021184800F04CFC1748818911
:10406000C089814207DA15480189C089081A1249B6
:10407000091D086006E011488189C089081A0E49A7
:10408000091D08600C48001D00680C49088208469C
:104090004168C089084408490C310860012106487C
:1040A00000F028FC05E0012240F22661044801F0FE
:1040B000B8FD10BD00800028B86402400800001060
:1040C0000010014010B53449344800F023FC0128A9
:1040D00061D13149314800F0F3FB304800F015FC64
:1040E000002858D12E48418D008E814207DD2C4892
:1040F000418D008E081A81B22948418502E00021D5
:10410000274841852648C18D008E084481B2244845
:10411000C185C18D008D91FBF0F200FB121081B2C0
:104120001F48C185408D00282FDD00211B4800F06D
:10413000E1FB1B48818DC08D814207DA1848018D53
:10414000C08D081A1549091D086006E01448818DC4
:10415000C08D081A1149091D08601048001D026829
:1041600010A1002001F08CF80C48001D006881B2FD
:104170000B480186416AC08D084408490C3108602B
:104180000121064800F0B6FB05E0012240F226615D
:10419000094801F046FD10BD00802020A0640240C7
:1041A00008000010554152542053454E44204C45C0
:1041B0004E203A25640D0A000014014010B5044653
:1041C00014B1012C7DD152E040F22551584801F044
:1041D000FEFC012804D140F22551554801F0C6FCEF
:1041E00040F22661524801F0F2FC012813D140F25E
:1041F00026614F4801F0BAFC80214D4801F0DAFCFD
:10420000012808D1002003F0FBF9002240F22661CA
:10421000474801F006FD40F22441454801F0D7FC33
:10422000012823D1424801F08BFD40F2244140484F
:1042300001F0CDFC3F48408B3F490968C1F59671BC
:10424000084481B23B48418300213B48001F00F0F5
:1042500051FB3A483849083108604FF496703649A6
:10426000086001213448001F00F044FB5DE040F28B
:104270002551334801F0ABFC012804D140F225510F
:104280002F4801F073FC40F226612D4801F09FFC9D
:10429000012812D140F22661294801F067FC8021F3
:1042A000274801F087FC012807D103F0A9F9002273
:1042B00040F22661224801F0B4FC40F2244120483B
:1042C00000E031E001F083FC01282CD11C4801F012
:1042D00037FD40F224411A4801F079FC00211648CC
:1042E000643800F007FB144860380068C0F5967029
:1042F00081B21448FEF744FD0F4860380068C0F5ED
:10430000967211A1002000F0BBFF0E480A495839EF
:1043100008604FF49670084960390860012106482A
:10432000643800F0E7FA00E000BF00BF10BD0000F5
:1043300000100140080000108C6402406001002061
:1043400000140140B8030020555341525420362038
:10435000524556206C656E203A25640D0A00000017
:1043600030B597B004460D46002013901490159078
:1043700016901190129010903C2101A8FDF73FF883
:1043800003F072F914B1012C7ED1BAE00121084684
:1043900000F06CFE0121102000F088FE11A800F052
:1043A000DFFC02208DF848004FF4C060119001201E
:1043B0008DF84B0003208DF8490011A9B04800F09A
:1043C00060FC07220921AE4800F0A3FC07220A2165
:1043D000AB4800F09EFC13A801F0B7FC4FF4E130AD
:1043E000139013A9A74801F041FC0121880500F0B2
:1043F0003DFE01A800F00AFB4FF4967005904FF0C7
:1044000000600190402004909F4803900020099094
:104410004FF48060079000200A909A48001D029097
:104420000020089006904FF440300B9001A9974867
:1044300000F0C0FA46208DF8400000208DF84100C1
:1044400001208DF842008DF8430010A800F0F6FC22
:10445000012210218D4800F08FFA00218B4800F0D6
:1044600049FA01228021874801F09BFB0121880540
:1044700000F0FCFD01A800F0C9FA4FF49670059019
:104480004FF00060019000E0F6E0002004908048CA
:104490000390002009904FF48060079080100A90EC
:1044A0007848001D02900020089006904FF440309C
:1044B0000B9001A97548303800F07CFA012173484F
:1044C000303800F017FA012240216E4801F069FBF4
:1044D000012240F224416B4801F0A3FB25208DF816
:1044E000400000208DF8410001208DF842008DF839
:1044F000430010A800F0A2FC0121624801F045FB36
:10450000BBE00121042000F0B1FD0121202000F0DA
:10451000CDFD11A800F024FC02208DF84800C02039
:10452000119001208DF84B0003208DF8490011A94E
:10453000584800F0A6FB08220621564800F0E9FB87
:1045400008220721534800F0E4FB13A801F0FDFB0B
:104550004FF4E130139013A94F4801F087FB01217C
:10456000880500F083FD01A800F050FA4FF4967022
:1045700005904FF020600190402004904748039040
:10458000002009904FF48060079000200A90424874
:10459000001D02900020089006904FF440300B90D0
:1045A00001A93A48183800F005FA45208DF8400076
:1045B00000208DF8410001208DF842008DF8430065
:1045C00010A800F03BFC012210213048183800F000
:1045D000D3F900212D48183800F08CF901228021F0
:1045E0002D4801F0DEFA0121880500F03FFD01A809
:1045F00000F00CFA4FF4967005904FF02060019097
:104600000020049026480390002009904FF4806019
:10461000079080100A902048001D0290002008900A
:1046200006904FF440300B9001A91848903800F0E4
:10463000C1F901211548903800F05CF901224021B0
:10464000154801F0AEFA012240F22441124801F06F
:10465000E8FA47208DF8400000208DF84100012045
:104660008DF842008DF8430010A800F0E7FB01210F
:10467000094801F08AFA00E000BF00BF17B030BD62
:10468000000002400010014034000020B8640240E5
:104690006001002000080240001401408C0200204C
:1046A000B803002070B504460D46164614B1012C1F
:1046B0007ED13EE032462946002002F03DFF002038
:1046C00002F02CFF002833DD0021444800F012F9ED
:1046D000002002F0AFFF42488189C089814207DA99
:1046E0003F480189C089081A3C49091D086006E055
:1046F0003B488189C089081A3849091D0860374834
:10470000001D00683649088208464168C08908448F
:1047100032490C3108600121304800F0EBF8314992
:104720002E4800F0CDF8012210212C4800F024F989
:1047300051E032462946012002F0FEFE012002F03F
:10474000EDFE002840DD00212448183800F0D2F8A2
:10475000012002F06FFF2248818DC08D814207DA6F
:104760001F48018DC08D081A1C491439086006E0E5
:104770001B48818DC08D081A1849143908601748E4
:104780001438026818A1002000F07AFD134814388C
:10479000006881B212480186416AC08D08440F4901
:1047A0000C39086015490D48183800F089F800E008
:1047B0000BE0012210210948183800F0DDF8012132
:1047C0000648183800F096F805E022460CA10020B3
:1047D00000F056FD00BF00BF70BD0000B86402408D
:1047E0000800001000800028554152542053454EC7
:1047F00044204C454E203A25640D0A0000802020BC
:104800005573617274202564206973206572720D7E
:104810000A00000010B503A1002000F031FDFFF7F1
:104820003BFB10BD426F617264496E69740D0A00F2
:1048300000BFFEE730B502460B464FF6FF70002181
:1048400012E0555C684000240AE000F0010525B143
:104850004AF2010585EA600000E04010651CACB238
:10486000082CF2DB4D1CA9B29942EADB30BD10B531
:10487000FEF76CFB10BD10B5FFF754FA10BD000039
:1048800010B502A1002000F0FBFC10BD456E746560
:10489000722074686520444D41325F5561727431F5
:1048A000525F49525148616E646C65720D0A000096
:1048B00010B5FFF707FC10BD10B5FFF795FB10BD55
:1048C0000246094B9A4201D2084801E006481038D6
:1048D00001F000531BB1064B0B40C36002E0044BD8
:1048E0000B4083607047000010640240006002408B
:1048F0007D0F7D0F21B1026842F00102026003E0EA
:10490000026822F00102026070470146486880B2E6
:104910007047000070B50246002000240025124EAA
:10492000B24201D2114B01E00F4B103B104E0E4032
:1049300036B11E2606EAD124166806EA040502E00E
:10494000566906F0800501F000560EB15C6800E083
:104950001C68084E344004EA010616B10DB101206E
:1049600000E0002070BD00001064024000600240C2
:104970003C0F3C0F7D0F7D0F10B501F080034BB154
:1049800022B1436943F08003436103E0436923F0AC
:104990008003436180290BD02AB1036801F01E0413
:1049A0002343036004E0036801F01E04A343036093
:1049B00010BD000010B500220268134B1A40CC68ED
:1049C0000B6823434C6923438C692343CC692343FD
:1049D0000C6A23434C6A23438C6A23434C6B234366
:1049E0008C6B23431A430260426922F00702D1E92B
:1049F0000B3423431A4342610B6943604B68836065
:104A00008B68C36010BD00003F801CF00021016076
:104A100041608160C160016141618161C161016288
:104A200041628162C1620163416381637047704783
:104A300010B5FEF7A1FB10BD0149086070470000EA
:104A4000143C014001460020034A12680A400AB1A2
:104A5000012000E000207047143C01400021234960
:104A60008279002A3AD00A46126803689A430B46B4
:104A70001A600A1D126803689A430B1D1A600279B6
:104A800011440A6803681A430A60184A0832126817
:104A900003689A43154B08331A601A1D126803689D
:104AA0009A43124B0C331A604279102A0ED11A1F06
:104AB000126803681A430D4B08331A601A1D1268F6
:104AC00003681A43094B0C331A600DE00749427919
:104AD00011440A6803681A430A6005E00279114428
:104AE0000A6803689A430A6070470000003C01406E
:104AF0000021016001710C21417100218171704719
:104B000070B504460A460026092502B909E0012AC3
:104B100001D1160205E0022A01D1160201E04FF48C
:104B2000407600F09DF80546092D28D1154800680B
:104B300020F440701349086008460068304308605C
:104B40000846006820F0F80008600846006844F055
:104B5000020108430B4908600846006840F48030B1
:104B6000086000F07DF805460648006820F0020065
:104B7000044908600846006820F0F80008602846EC
:104B800070BD0000103C024009201349096801F47F
:104B90008031B1F5803F01D101201CE00E49096848
:104BA00001F0100109B1062015E00B49096801F474
:104BB000807109B102200EE00749096801F0E001A7
:104BC00009B1072007E00449096801F0020109B1B1
:104BD000082000E0092070470C3C024003480068B0
:104BE00040F000400149086070470000103C02405E
:104BF00030B502460C46092500F032F80546092D6D
:104C000017D10D48006820F440700B490860084631
:104C1000006808600846006840F0010008601470F1
:104C200000F01EF805460448006820F00100024923
:104C30000860284630BD0000103C0240054800686E
:104C400000F0004028B1044802490C3908600348CC
:104C500008607047103C024023016745AB89EFCDE7
:104C600008B509200090FFF78FFF009002E0FFF7E2
:104C70008BFF00909DF800000128F8D09DF80000FF
:104C800008BDF0B50A4600210023002400BF3DE026
:104C9000012505FA01F3156805EA03049C4234D1A5
:104CA00005684F000326BE40B543056015794E00E8
:104CB000B5400668354305601579012D02D0157998
:104CC000022D16D185684F000326BE40B54385608E
:104CD00055794E00B54086683543856045680126A4
:104CE0008E40B5434560456896798E40B6B23543EF
:104CF0004560C5684F000326BE40B543C560D57901
:104D00004E00B540C6683543C560491C1029BFD365
:104D1000F0BDF0B5002300244D07ED0E02FA05F3B7
:104D2000CE1000F1200555F826504E07F70E0F263D
:104D3000BE40B543CF1000F1200646F82750CE10F4
:104D400000F1200555F8265045EA0304CE1000F185
:104D5000200545F82640F0BD418370470183704728
:104D60004FF6FF7101600021017141718171C171C4
:104D700070470AB1018300E04183704710B50446D3
:104D8000024804700020FEF7EBFE10BD000000108A
:104D900070B505460C4604F0020020B1FEF700FF96
:104DA00084F0020070BD04F0040050B1FEF782F8F8
:104DB000022001F01BF8082001F078F884F00400CC
:104DC000F0E70020EEE7000010B504462146024857
:104DD000007800F0B1F810BD0000001003E002A15F
:104DE000002000F04DFAFAE7486172644661756C84
:104DF00074202E2E2E0D0A0070B505460C46207824
:104E00002870607868706278A11CA81CFCF75EFAB4
:104E10006078801CC0B270BD10B50246002003E06F
:104E200012F8014B2318D8B20B1EA1F10104A1B254
:104E3000F6D110BD00BFFEE77047000070B500213D
:104E400000230F22C4781CB3174C246804F4E064D8
:104E5000C4F5E064C4F30721C1F10404E3B20A41DC
:104E600044789C40E1B28478144021430C07210E21
:104E70000E4C05786155047804F01F050124AC4000
:104E800005786D11AD0005F1E025C5F8004109E098
:104E9000047804F01F050124AC40054D0678761116
:104EA00045F8264070BD00000CED00E000E400E095
:104EB00080E100E0002000BF0249086809688842DC
:104EC000FAD170471C00002070B5044600BFEFF314
:104ED00010800546012002F02FF914480088204474
:104EE00012490880124800682044114908600F48A0
:104EF0000088B0F57A7F14DB0C4800884FF47A7193
:104F000090FBF1F00B49096808440A49086007481A
:104F100000884FF47A7190FBF1F201FB1200034913
:104F20000880284602F008F970BD00001800002033
:104F30001C0000201400002070B504460D46032C10
:104F400010DA01F088F90646012002F0F8F8064868
:104F500050F824002843044941F82400304602F068
:104F6000EEF800BF70BD000004C9012010B500F0CC
:104F700005F800F017F800F006F810BD704700BF04
:104F800002F0C4FBFCE710B500242046641CFFF7C8
:104F9000F5FE2046641C00F0E7FE2046641C00F08D
:104FA00033FF10BD002000BF07E0002100EB4002EE
:104FB000034B03F83210411CC8B20A28F5DB7047D6
:104FC000C8C100102DE9F04104460D461646324690
:104FD0002946204602F0EAFB074617B10120BDE84A
:104FE000F0810020FBE770B505460E4600243146EF
:104FF000284602F049FC04460CB100202071002034
:1050000070BD000070B5054601F028F90646012084
:1050100002F098F813480068F8B11248046819E0E3
:105020002079002812DDA068A84203D9A068401B9F
:10503000A06001E00020A060206938B1A06828B914
:1050400000202071207B2169FFF776FF246830461D
:1050500002F078F8002CE3D102E0304602F072F85A
:1050600070BD0000200000207047000029B1064AF2
:1050700012680243044B1A6004E0034A1268824338
:10508000014B1A60704700003038024029B1064ACF
:1050900012680243044B1A6004E0034A1268824318
:1050A000014B1A60704700004038024029B1064A9F
:1050B00012680243044B1A6004E0034A12688243F8
:1050C000014B1A607047000044380240F0B50021DF
:1050D00000220024022500260223324F3F6807F0F9
:1050E0000C0121B1042905D0082937D105E02E4F44
:1050F000076036E02D4F076033E02A4F3F1F3F68BF
:10510000C7F38056274F3F1F3F6807F03F036EB13C
:10511000264FB7FBF3F7DFF88CC0ACF1040CDCF8DA
:1051200000C0CCF3881C07FB0CF40CE01E4FB7FB4F
:10513000F3F7DFF870C0ACF1040CDCF800C0CCF37E
:10514000881C07FB0CF4174F3F1F3F68C7F301474C
:105150007F1C7D00B4FBF5F7076002E0124F07608B
:1051600000BF00BF0F4F3F6807F0F0010909104F63
:105170007A5C0768D74047600A4F3F6807F4E05100
:10518000890A0B4F7A5C4768D7408760054F3F68B4
:1051900007F46041490B064F7A5C4768D740C76007
:1051A000F0BD0000083802400024F40000127A002C
:1051B000240000202DE9F04104460D46164600BFAC
:1051C0000D48007808B900F07BFE00BFEFF31180B6
:1051D0000746202080F3118800BF00BF32462946D1
:1051E000204600F00BF88046F8B280F3118800BF2B
:1051F00000BF4046BDE8F081B8C200102DE9F0477D
:10520000074688461646C24607EB47011B4800EB97
:10521000C109D9F8140020B1012811D0022826D1E3
:105220001EE0484600F084FE0546B54201D2002447
:1052300005E0344632465146484600F0CEFF18E0BD
:10524000484600F075FE0546B54201D2284600E00A
:105250003046044622465146484600F0BEFF08E06C
:1052600032465146484600F07FFF044601E00024E4
:1052700000BF00BF2046BDE8F0870000D0C200108C
:105280000FB438B5044606A800906A462046059932
:1052900000F007F8054600200090284638BC5DF86D
:1052A00014FB2DE9F04F99B082460D46144603A831
:1052B00014904020159000201690CDF860A0179013
:1052C00000BF2E786D1C06B9DDE0252E79D10027B0
:1052D0004FF0010900BF2E78232E12D02B2E0CD0B8
:1052E0002D2E02D0302E10D103E047F001076D1CA7
:1052F0000EE047F002076D1C0AE047F004076D1C42
:1053000006E047F008076D1C02E04FF0000900BFFF
:1053100000BFB9F1000FDED14FF0000800BF2E78BA
:10532000302E01DB392E00DD07E06D1CA6F13000C8
:1053300008EB880100EB4108F1E700BF0020139063
:105340002E782E2E12D16D1C00BF2E78302E01DB50
:10535000392E00DD09E06D1CA6F13000139901EB38
:10536000810100EB41001390EFE700BF2E7800BFF2
:105370006C2E01D0682E02D16D1C2E7800E000E06A
:10538000F6E700BF702E5DD008DC252E6AD0582EBF
:1053900035D0632E09D0642E69D113E0732E3CD032
:1053A000752E1DD0782E62D128E02168081D20605E
:1053B000D1F8009009F0FF0B594614A800F0B2FE96
:1053C00056E058E02168081D2060D1F80090CDE932
:1053D00000870A22494614A8139B00F0B7FD47E056
:1053E0002168081D2060D1F80090CDE900870A22CD
:1053F000494614A8139B00F01FFE39E000BF216846
:10540000081D2060D1F80090CDE9008710224946A0
:1054100014A8139B00F010FE2AE02168081D2060EC
:10542000D1F800B000BF9BF800600BF1010B06B98A
:1054300006E0314614A800F075FE17980028F2DA4D
:1054400000BF15E02168081D2060D1F80090002001
:1054500008210B461022CDE90010494614A800F09F
:10546000EBFD05E0252114A800F05CFE00E000BF84
:1054700000BF6D1C03E0314614A800F053FE1798DE
:105480000028BFF61EAF00BF179800280ADD169847
:1054900020B103A95046169AFFF78CFEDDE91610DD
:1054A00008441790179819B0BDE8F08F10B5FEF7B3
:1054B00057FC10BD21B1028842F04002028004E096
:1054C00002884FF6BF731A400280704710B5002261
:1054D00001F00F040123A3409AB2D343038110BD0E
:1054E000F0B50246002000240023002501F00F073C
:1054F0000126BE40B4B20B1101269E40B3B296887D
:1055000006EA03051689264016B10DB1012000E018
:105510000020F0BD30B5002400230C110125A5406A
:10552000ABB21AB185881D43858002E085889D4312
:10553000858030BD0146888970478181704710B5EC
:105540000022028802F441520B884C8823438C8845
:105550002343CC8823430C8923434C8923438C89E0
:105560002343CC8923431A430280838B4FF2FF7479
:10557000234083830B8A038210BD00210180418078
:105580008180C180018141818181C18107210182A6
:105590007047704730B500228B071C0F0F2303FAAA
:1055A00004F20B4B8C1053F824309343084C8D10AD
:1055B00044F8253023468C1053F824308C07240FF0
:1055C00000FA04F42343024C8D1044F8253030BD1A
:1055D000083801400CB50020019000904148006857
:1055E00040F480303F49086000BF3E48006800F446
:1055F000003000900198401C0190009818B9019863
:10560000B0F5A04FF1D13748006800F4003010B178
:105610000120009001E0002000900098012846D170
:1056200030484030006840F080502E4940310860DA
:105630002D48006840F440402B4908602948083054
:1056400000682849083108600846006840F40040B6
:1056500008600846006840F4A05008602348091F0D
:105660000860081F006840F08070091F086000BFD4
:105670001C48006800F000700028F9D040F2057066
:105680001B49086017480830006820F003001549DE
:10569000083108600846006840F00200086000BF5A
:1056A00010480830006800F00C000828F8D10D48B8
:1056B0000830006820F400000A49083108600D48ED
:1056C0000849843108600748006840F08060054957
:1056D000086000BF0348006800F000600028F9D0AF
:1056E0000CBD00000038024000700040042A400455
:1056F000003C02408040003010B50120FFF782FCE2
:105700000120FFF7E1FBFEF7BFFB10BD10B5154808
:10571000006840F47000134908601348006840F0C6
:1057200001001149086000200F49083108600E4847
:1057300000680E4908400C4908600D48091D0860C2
:10574000081F006820F48020091F08600020064917
:105750000C310860FFF73EFF4FF0006001498039CF
:10576000086010BD88ED00E000380240FFFFF6FE43
:105770001030002400B52DED028B8BB01C4A0621A1
:105780001C48FDF78FFE06211948FFF753F820B992
:1057900019A10020FFF774FD0FE09FED1C0A10EE29
:1057A000100A1349086004211148FFF743F8104913
:1057B000888006220F48FDF781FE202103A8FBF711
:1057C0001EFE0B480168084603F03AFC41EC180B3A
:1057D0008DED008B0EA21E2103A8FBF705FD03AA89
:1057E0000CA10020FFF74CFD0BB0BDEC028B00BDFF
:1057F0004800001000000C0853595320506172619A
:105800006D2052656164204F4B0D0A000000FA4381
:1058100025660000535953204144373938385F56C4
:105820006F6C4143435F703A2573200D0A000000FE
:1058300010B504210648FEF7FDFF054988800622C1
:105840000448FDF73BFE04A10020FFF719FD10BD41
:105850004800001000000C085379732073617665CE
:105860000D0A000010B5FFF785FFFEF7C7F801210C
:105870000846FFF7FBFB00220E210448FFF749FA18
:1058800000220D210148FFF744FA10BD000002403C
:1058900021B1028842F08002028004E002884FF6C3
:1058A0007F731A400280704721B1028842F00102E2
:1058B000028004E002884FF6FE731A4002807047AF
:1058C00031B1B0F8442042F40042A0F8442005E091
:1058D000B0F84420C2F30E02A0F844207047000044
:1058E00070B5002400220023058C4FF6EF7635407A
:1058F0000584028C8388048B48F6FF752C404FF694
:10590000FF452C400D884FF6FF7606EA05252C430F
:105910004FF6DF752A408D8906EA05152A434D8822
:1059200006EA05152A43154DA84202D0144DA84297
:105930001DD14FF67F752A40CD894FF6FF7606EAD6
:1059400005152A434FF6BF752A408D8806EA0515CE
:105950002A434FF6FF352B404FF2FF752B400D8A3F
:1059600006EA85052B434D8A06EA85052B4383808D
:1059700004838D688563028470BD000000000140CF
:10598000000401400A460021018B4FF2FF731940C9
:105990004FF6FF7303EA02231943018370470000A7
:1059A00000220288184B98420ED0184B98420BD018
:1059B000B0F1804F08D0164B984205D0154B984255
:1059C00002D0154B984204D14FF68F731A404B8882
:1059D0001A43124B984207D0114B984204D04FF60D
:1059E000FF431A400B891A4302804B68C3620B883D
:1059F0000385054B984202D0044B984201D18B7A23
:105A000003860123838270470000014000040140A7
:105A10000004004000080040000C0040001000405E
:105A20000014004010B50020FDF7A6FA14490880C4
:105A300008460088B0F5167F18DB0846008840F657
:105A4000B831884212DC0E48008800EE100AF8EEE9
:105A5000400A9FED0C1A9FED0C0A10EE810A0848CF
:105A600080ED010A0220FEF77BF807E09FED070AB0
:105A7000034880ED010A0220FEF71EF810BD000069
:105A800030C801203F55553E0000FA42000000009A
:105A9000014890ED010A704730C801202DE9F0411E
:105AA00007460D460026C8212048FBF786FC1F4C00
:105AB0007E202070422060703920608028686060FD
:105AC0006868A060A868E060E86820612869606193
:105AD0006869A061A869E061E8692062286A60627B
